{
  "_format": "hh-sol-artifact-1",
  "contractName": "Escrow",
  "sourceName": "exercices/rush/sources/Escrow.sol",
  "abi": [
    {
      "inputs": [
        {
          "internalType": "address",
          "name": "_buyer",
          "type": "address"
        },
        {
          "internalType": "address payable",
          "name": "_seller",
          "type": "address"
        },
        {
          "internalType": "address",
          "name": "_store",
          "type": "address"
        }
      ],
      "stateMutability": "nonpayable",
      "type": "constructor"
    },
    {
      "stateMutability": "payable",
      "type": "fallback"
    },
    {
      "inputs": [],
      "name": "buyer",
      "outputs": [
        {
          "internalType": "address",
          "name": "",
          "type": "address"
        }
      ],
      "stateMutability": "view",
      "type": "function"
    },
    {
      "inputs": [],
      "name": "currState",
      "outputs": [
        {
          "internalType": "enum Escrow.State",
          "name": "",
          "type": "uint8"
        }
      ],
      "stateMutability": "view",
      "type": "function"
    },
    {
      "inputs": [
        {
          "internalType": "address payable",
          "name": "_buyer",
          "type": "address"
        }
      ],
      "name": "deposit",
      "outputs": [],
      "stateMutability": "payable",
      "type": "function"
    },
    {
      "inputs": [],
      "name": "getBuyer",
      "outputs": [
        {
          "internalType": "address",
          "name": "",
          "type": "address"
        }
      ],
      "stateMutability": "view",
      "type": "function"
    },
    {
      "inputs": [],
      "name": "returnAddr",
      "outputs": [
        {
          "internalType": "address",
          "name": "",
          "type": "address"
        }
      ],
      "stateMutability": "view",
      "type": "function"
    },
    {
      "inputs": [],
      "name": "seller",
      "outputs": [
        {
          "internalType": "address payable",
          "name": "",
          "type": "address"
        }
      ],
      "stateMutability": "view",
      "type": "function"
    },
    {
      "inputs": [
        {
          "internalType": "address payable",
          "name": "_addr",
          "type": "address"
        }
      ],
      "name": "unlockFundsBuyer",
      "outputs": [],
      "stateMutability": "nonpayable",
      "type": "function"
    },
    {
      "inputs": [
        {
          "internalType": "address payable",
          "name": "_addr",
          "type": "address"
        }
      ],
      "name": "unlockFundsWithCode",
      "outputs": [],
      "stateMutability": "nonpayable",
      "type": "function"
    },
    {
      "stateMutability": "payable",
      "type": "receive"
    }
  ],
  "bytecode": "0x60806040523480156200001157600080fd5b5060405162000f8438038062000f84833981810160405281019062000037919062000131565b82600060016101000a81548173ffffffffffffffffffffffffffffffffffffffff021916908373ffffffffffffffffffffffffffffffffffffffff16021790555081600160006101000a81548173ffffffffffffffffffffffffffffffffffffffff021916908373ffffffffffffffffffffffffffffffffffffffff16021790555080600260006101000a81548173ffffffffffffffffffffffffffffffffffffffff021916908373ffffffffffffffffffffffffffffffffffffffff16021790555050505062000203565b6000815190506200011481620001cf565b92915050565b6000815190506200012b81620001e9565b92915050565b6000806000606084860312156200014757600080fd5b6000620001578682870162000103565b93505060206200016a868287016200011a565b92505060406200017d8682870162000103565b9150509250925092565b60006200019482620001af565b9050919050565b6000620001a882620001af565b9050919050565b600073ffffffffffffffffffffffffffffffffffffffff82169050919050565b620001da8162000187565b8114620001e657600080fd5b50565b620001f4816200019b565b81146200020057600080fd5b50565b610d7180620002136000396000f3fe60806040526004361061007f5760003560e01c80637150d8ae1161004e5780637150d8ae14610132578063a6d339c51461015d578063afe0104314610186578063f340fa01146101b157610086565b806308551a531461008857806324896245146100b3578063603daf9a146100dc578063638b2f621461010757610086565b3661008657005b005b34801561009457600080fd5b5061009d6101cd565b6040516100aa9190610a40565b60405180910390f35b3480156100bf57600080fd5b506100da60048036038101906100d59190610943565b6101f3565b005b3480156100e857600080fd5b506100f161048b565b6040516100fe9190610a25565b60405180910390f35b34801561011357600080fd5b5061011c6104b4565b6040516101299190610a25565b60405180910390f35b34801561013e57600080fd5b506101476104bc565b6040516101549190610a25565b60405180910390f35b34801561016957600080fd5b50610184600480360381019061017f9190610943565b6104e2565b005b34801561019257600080fd5b5061019b61077a565b6040516101a89190610a5b565b60405180910390f35b6101cb60048036038101906101c69190610943565b61078b565b005b600160009054906101000a900473ffffffffffffffffffffffffffffffffffffffff1681565b600060019054906101000a900473ffffffffffffffffffffffffffffffffffffffff1673ffffffffffffffffffffffffffffffffffffffff168173ffffffffffffffffffffffffffffffffffffffff1614610283576040517f08c379a000000000000000000000000000000000000000000000000000000000815260040161027a90610a76565b60405180910390fd5b600160028111156102bd577f4e487b7100000000000000000000000000000000000000000000000000000000600052602160045260246000fd5b60008054906101000a900460ff166002811115610303577f4e487b7100000000000000000000000000000000000000000000000000000000600052602160045260246000fd5b14610343576040517f08c379a000000000000000000000000000000000000000000000000000000000815260040161033a90610ab6565b60405180910390fd5b600260009054906101000a900473ffffffffffffffffffffffffffffffffffffffff1673ffffffffffffffffffffffffffffffffffffffff166108fc60144761038c9190610b07565b9081150290604051600060405180830381858888f193505050501580156103b7573d6000803e3d6000fd5b50600160009054906101000a900473ffffffffffffffffffffffffffffffffffffffff1673ffffffffffffffffffffffffffffffffffffffff166108fc6014476104019190610b07565b4761040c9190610b38565b9081150290604051600060405180830381858888f19350505050158015610437573d6000803e3d6000fd5b5060026000806101000a81548160ff02191690836002811115610483577f4e487b7100000000000000000000000000000000000000000000000000000000600052602160045260246000fd5b021790555050565b60008060019054906101000a900473ffffffffffffffffffffffffffffffffffffffff16905090565b600030905090565b600060019054906101000a900473ffffffffffffffffffffffffffffffffffffffff1681565b8073ffffffffffffffffffffffffffffffffffffffff16600160009054906101000a900473ffffffffffffffffffffffffffffffffffffffff1673ffffffffffffffffffffffffffffffffffffffff1614610572576040517f08c379a000000000000000000000000000000000000000000000000000000000815260040161056990610ad6565b60405180910390fd5b600160028111156105ac577f4e487b7100000000000000000000000000000000000000000000000000000000600052602160045260246000fd5b60008054906101000a900460ff1660028111156105f2577f4e487b7100000000000000000000000000000000000000000000000000000000600052602160045260246000fd5b14610632576040517f08c379a000000000000000000000000000000000000000000000000000000000815260040161062990610ab6565b60405180910390fd5b600260009054906101000a900473ffffffffffffffffffffffffffffffffffffffff1673ffffffffffffffffffffffffffffffffffffffff166108fc60144761067b9190610b07565b9081150290604051600060405180830381858888f193505050501580156106a6573d6000803e3d6000fd5b50600160009054906101000a900473ffffffffffffffffffffffffffffffffffffffff1673ffffffffffffffffffffffffffffffffffffffff166108fc6014476106f09190610b07565b476106fb9190610b38565b9081150290604051600060405180830381858888f19350505050158015610726573d6000803e3d6000fd5b5060026000806101000a81548160ff02191690836002811115610772577f4e487b7100000000000000000000000000000000000000000000000000000000600052602160045260246000fd5b021790555050565b60008054906101000a900460ff1681565b8073ffffffffffffffffffffffffffffffffffffffff16600060019054906101000a900473ffffffffffffffffffffffffffffffffffffffff1673ffffffffffffffffffffffffffffffffffffffff161461081b576040517f08c379a000000000000000000000000000000000000000000000000000000000815260040161081290610a76565b60405180910390fd5b60006002811115610855577f4e487b7100000000000000000000000000000000000000000000000000000000600052602160045260246000fd5b60008054906101000a900460ff16600281111561089b577f4e487b7100000000000000000000000000000000000000000000000000000000600052602160045260246000fd5b146108db576040517f08c379a00000000000000000000000000000000000000000000000000000000081526004016108d290610a96565b60405180910390fd5b60016000806101000a81548160ff02191690836002811115610926577f4e487b7100000000000000000000000000000000000000000000000000000000600052602160045260246000fd5b021790555050565b60008135905061093d81610d24565b92915050565b60006020828403121561095557600080fd5b60006109638482850161092e565b91505092915050565b61097581610b7e565b82525050565b61098481610b6c565b82525050565b61099381610bcd565b82525050565b60006109a6601283610af6565b91506109b182610c6c565b602082019050919050565b60006109c9600c83610af6565b91506109d482610c95565b602082019050919050565b60006109ec601783610af6565b91506109f782610cbe565b602082019050919050565b6000610a0f601383610af6565b9150610a1a82610ce7565b602082019050919050565b6000602082019050610a3a600083018461097b565b92915050565b6000602082019050610a55600083018461096c565b92915050565b6000602082019050610a70600083018461098a565b92915050565b60006020820190508181036000830152610a8f81610999565b9050919050565b60006020820190508181036000830152610aaf816109bc565b9050919050565b60006020820190508181036000830152610acf816109df565b9050919050565b60006020820190508181036000830152610aef81610a02565b9050919050565b600082825260208201905092915050565b6000610b1282610bc3565b9150610b1d83610bc3565b925082610b2d57610b2c610c0e565b5b828204905092915050565b6000610b4382610bc3565b9150610b4e83610bc3565b925082821015610b6157610b60610bdf565b5b828203905092915050565b6000610b7782610ba3565b9050919050565b6000610b8982610ba3565b9050919050565b6000819050610b9e82610d10565b919050565b600073ffffffffffffffffffffffffffffffffffffffff82169050919050565b6000819050919050565b6000610bd882610b90565b9050919050565b7f4e487b7100000000000000000000000000000000000000000000000000000000600052601160045260246000fd5b7f4e487b7100000000000000000000000000000000000000000000000000000000600052601260045260246000fd5b7f4e487b7100000000000000000000000000000000000000000000000000000000600052602160045260246000fd5b7f6f6e6c7920627579657220616c6c6f7765640000000000000000000000000000600082015250565b7f416c726561647920706169640000000000000000000000000000000000000000600082015250565b7f43616e6e6f7420636f6e6669726d2064656c6976657279000000000000000000600082015250565b7f6f6e6c792073656c6c657220616c6c6f77656400000000000000000000000000600082015250565b60038110610d2157610d20610c3d565b5b50565b610d2d81610b7e565b8114610d3857600080fd5b5056fea26469706673582212204027b16ce809526f95d42d4522506b29a83bd975c274ad94143da2760e3f585e64736f6c63430008040033",
  "linkReferences": {},
  "deployedLinkReferences": {}
}