{
  "_format": "hh-sol-artifact-1",
  "contractName": "Leboncoin",
  "sourceName": "exercices/rush/sources/Leboncoin.sol",
  "abi": [
    {
      "inputs": [],
      "stateMutability": "payable",
      "type": "constructor"
    },
    {
      "anonymous": false,
      "inputs": [
        {
          "indexed": true,
          "internalType": "contract IERC20",
          "name": "token",
          "type": "address"
        },
        {
          "indexed": false,
          "internalType": "address",
          "name": "to",
          "type": "address"
        },
        {
          "indexed": false,
          "internalType": "uint256",
          "name": "amount",
          "type": "uint256"
        }
      ],
      "name": "ERC20PaymentReleased",
      "type": "event"
    },
    {
      "anonymous": false,
      "inputs": [
        {
          "indexed": true,
          "internalType": "address",
          "name": "previousOwner",
          "type": "address"
        },
        {
          "indexed": true,
          "internalType": "address",
          "name": "newOwner",
          "type": "address"
        }
      ],
      "name": "OwnershipTransferred",
      "type": "event"
    },
    {
      "anonymous": false,
      "inputs": [
        {
          "indexed": false,
          "internalType": "address",
          "name": "account",
          "type": "address"
        },
        {
          "indexed": false,
          "internalType": "uint256",
          "name": "shares",
          "type": "uint256"
        }
      ],
      "name": "PayeeAdded",
      "type": "event"
    },
    {
      "anonymous": false,
      "inputs": [
        {
          "indexed": false,
          "internalType": "address",
          "name": "from",
          "type": "address"
        },
        {
          "indexed": false,
          "internalType": "uint256",
          "name": "amount",
          "type": "uint256"
        }
      ],
      "name": "PaymentReceived",
      "type": "event"
    },
    {
      "anonymous": false,
      "inputs": [
        {
          "indexed": false,
          "internalType": "address",
          "name": "to",
          "type": "address"
        },
        {
          "indexed": false,
          "internalType": "uint256",
          "name": "amount",
          "type": "uint256"
        }
      ],
      "name": "PaymentReleased",
      "type": "event"
    },
    {
      "anonymous": false,
      "inputs": [
        {
          "indexed": true,
          "internalType": "uint256",
          "name": "id",
          "type": "uint256"
        },
        {
          "indexed": false,
          "internalType": "string",
          "name": "name",
          "type": "string"
        },
        {
          "indexed": false,
          "internalType": "address",
          "name": "owner",
          "type": "address"
        },
        {
          "indexed": false,
          "internalType": "address",
          "name": "escrow",
          "type": "address"
        },
        {
          "indexed": false,
          "internalType": "uint256",
          "name": "price",
          "type": "uint256"
        },
        {
          "indexed": false,
          "internalType": "enum Leboncoin.productStatus",
          "name": "status",
          "type": "uint8"
        }
      ],
      "name": "ProductCreated",
      "type": "event"
    },
    {
      "inputs": [
        {
          "internalType": "uint256",
          "name": "_id",
          "type": "uint256"
        }
      ],
      "name": "buyProduct",
      "outputs": [],
      "stateMutability": "payable",
      "type": "function"
    },
    {
      "inputs": [],
      "name": "contractOwner",
      "outputs": [
        {
          "internalType": "address payable",
          "name": "",
          "type": "address"
        }
      ],
      "stateMutability": "view",
      "type": "function"
    },
    {
      "inputs": [
        {
          "internalType": "string",
          "name": "_name",
          "type": "string"
        },
        {
          "internalType": "uint256",
          "name": "_price",
          "type": "uint256"
        }
      ],
      "name": "createProduct",
      "outputs": [
        {
          "internalType": "uint256",
          "name": "",
          "type": "uint256"
        }
      ],
      "stateMutability": "payable",
      "type": "function"
    },
    {
      "inputs": [
        {
          "internalType": "uint256",
          "name": "_id",
          "type": "uint256"
        }
      ],
      "name": "freeFundsBuyer",
      "outputs": [],
      "stateMutability": "payable",
      "type": "function"
    },
    {
      "inputs": [
        {
          "internalType": "string",
          "name": "_passphrase",
          "type": "string"
        },
        {
          "internalType": "bytes32[]",
          "name": "_proof",
          "type": "bytes32[]"
        },
        {
          "internalType": "uint256",
          "name": "_id",
          "type": "uint256"
        }
      ],
      "name": "freeFundsWithcode",
      "outputs": [],
      "stateMutability": "payable",
      "type": "function"
    },
    {
      "inputs": [
        {
          "internalType": "uint256",
          "name": "_id",
          "type": "uint256"
        }
      ],
      "name": "getEscrowAddr",
      "outputs": [
        {
          "internalType": "address",
          "name": "",
          "type": "address"
        }
      ],
      "stateMutability": "view",
      "type": "function"
    },
    {
      "inputs": [
        {
          "internalType": "address",
          "name": "_addr",
          "type": "address"
        }
      ],
      "name": "getEscrowBalance",
      "outputs": [
        {
          "internalType": "uint256",
          "name": "",
          "type": "uint256"
        }
      ],
      "stateMutability": "view",
      "type": "function"
    },
    {
      "inputs": [
        {
          "internalType": "uint256",
          "name": "_id",
          "type": "uint256"
        }
      ],
      "name": "getProduct",
      "outputs": [
        {
          "components": [
            {
              "internalType": "uint256",
              "name": "id",
              "type": "uint256"
            },
            {
              "internalType": "string",
              "name": "name",
              "type": "string"
            },
            {
              "internalType": "address payable",
              "name": "owner",
              "type": "address"
            },
            {
              "internalType": "address payable",
              "name": "escrow",
              "type": "address"
            },
            {
              "internalType": "uint256",
              "name": "price",
              "type": "uint256"
            },
            {
              "internalType": "enum Leboncoin.productStatus",
              "name": "status",
              "type": "uint8"
            }
          ],
          "internalType": "struct Leboncoin.Product",
          "name": "",
          "type": "tuple"
        }
      ],
      "stateMutability": "view",
      "type": "function"
    },
    {
      "inputs": [
        {
          "internalType": "address",
          "name": "_addr",
          "type": "address"
        }
      ],
      "name": "getProductbyOwner",
      "outputs": [
        {
          "components": [
            {
              "internalType": "uint256",
              "name": "id",
              "type": "uint256"
            },
            {
              "internalType": "string",
              "name": "name",
              "type": "string"
            },
            {
              "internalType": "address payable",
              "name": "owner",
              "type": "address"
            },
            {
              "internalType": "address payable",
              "name": "escrow",
              "type": "address"
            },
            {
              "internalType": "uint256",
              "name": "price",
              "type": "uint256"
            },
            {
              "internalType": "enum Leboncoin.productStatus",
              "name": "status",
              "type": "uint8"
            }
          ],
          "internalType": "struct Leboncoin.Product",
          "name": "",
          "type": "tuple"
        }
      ],
      "stateMutability": "view",
      "type": "function"
    },
    {
      "inputs": [],
      "name": "owner",
      "outputs": [
        {
          "internalType": "address",
          "name": "",
          "type": "address"
        }
      ],
      "stateMutability": "view",
      "type": "function"
    },
    {
      "inputs": [
        {
          "internalType": "uint256",
          "name": "index",
          "type": "uint256"
        }
      ],
      "name": "payee",
      "outputs": [
        {
          "internalType": "address",
          "name": "",
          "type": "address"
        }
      ],
      "stateMutability": "view",
      "type": "function"
    },
    {
      "inputs": [
        {
          "internalType": "address",
          "name": "account",
          "type": "address"
        }
      ],
      "name": "releasable",
      "outputs": [
        {
          "internalType": "uint256",
          "name": "",
          "type": "uint256"
        }
      ],
      "stateMutability": "view",
      "type": "function"
    },
    {
      "inputs": [
        {
          "internalType": "contract IERC20",
          "name": "token",
          "type": "address"
        },
        {
          "internalType": "address",
          "name": "account",
          "type": "address"
        }
      ],
      "name": "releasable",
      "outputs": [
        {
          "internalType": "uint256",
          "name": "",
          "type": "uint256"
        }
      ],
      "stateMutability": "view",
      "type": "function"
    },
    {
      "inputs": [
        {
          "internalType": "address payable",
          "name": "account",
          "type": "address"
        }
      ],
      "name": "release",
      "outputs": [],
      "stateMutability": "nonpayable",
      "type": "function"
    },
    {
      "inputs": [
        {
          "internalType": "contract IERC20",
          "name": "token",
          "type": "address"
        },
        {
          "internalType": "address",
          "name": "account",
          "type": "address"
        }
      ],
      "name": "release",
      "outputs": [],
      "stateMutability": "nonpayable",
      "type": "function"
    },
    {
      "inputs": [
        {
          "internalType": "contract IERC20",
          "name": "token",
          "type": "address"
        },
        {
          "internalType": "address",
          "name": "account",
          "type": "address"
        }
      ],
      "name": "released",
      "outputs": [
        {
          "internalType": "uint256",
          "name": "",
          "type": "uint256"
        }
      ],
      "stateMutability": "view",
      "type": "function"
    },
    {
      "inputs": [
        {
          "internalType": "address",
          "name": "account",
          "type": "address"
        }
      ],
      "name": "released",
      "outputs": [
        {
          "internalType": "uint256",
          "name": "",
          "type": "uint256"
        }
      ],
      "stateMutability": "view",
      "type": "function"
    },
    {
      "inputs": [],
      "name": "renounceOwnership",
      "outputs": [],
      "stateMutability": "nonpayable",
      "type": "function"
    },
    {
      "inputs": [
        {
          "internalType": "bytes32",
          "name": "_root",
          "type": "bytes32"
        },
        {
          "internalType": "uint256",
          "name": "_id",
          "type": "uint256"
        }
      ],
      "name": "setMerklRoot",
      "outputs": [],
      "stateMutability": "nonpayable",
      "type": "function"
    },
    {
      "inputs": [
        {
          "internalType": "uint256",
          "name": "_id",
          "type": "uint256"
        },
        {
          "internalType": "enum Leboncoin.saleMode",
          "name": "_choice",
          "type": "uint8"
        }
      ],
      "name": "setSaleMode",
      "outputs": [],
      "stateMutability": "nonpayable",
      "type": "function"
    },
    {
      "inputs": [
        {
          "internalType": "address",
          "name": "account",
          "type": "address"
        }
      ],
      "name": "shares",
      "outputs": [
        {
          "internalType": "uint256",
          "name": "",
          "type": "uint256"
        }
      ],
      "stateMutability": "view",
      "type": "function"
    },
    {
      "inputs": [
        {
          "internalType": "contract IERC20",
          "name": "token",
          "type": "address"
        }
      ],
      "name": "totalReleased",
      "outputs": [
        {
          "internalType": "uint256",
          "name": "",
          "type": "uint256"
        }
      ],
      "stateMutability": "view",
      "type": "function"
    },
    {
      "inputs": [],
      "name": "totalReleased",
      "outputs": [
        {
          "internalType": "uint256",
          "name": "",
          "type": "uint256"
        }
      ],
      "stateMutability": "view",
      "type": "function"
    },
    {
      "inputs": [],
      "name": "totalShares",
      "outputs": [
        {
          "internalType": "uint256",
          "name": "",
          "type": "uint256"
        }
      ],
      "stateMutability": "view",
      "type": "function"
    },
    {
      "inputs": [
        {
          "internalType": "address",
          "name": "newOwner",
          "type": "address"
        }
      ],
      "name": "transferOwnership",
      "outputs": [],
      "stateMutability": "nonpayable",
      "type": "function"
    },
    {
      "stateMutability": "payable",
      "type": "receive"
    }
  ],
  "bytecode": "0x60806040527309fcfd97b454eca3fdb7b2b9a08f3263038516a9600b60006101000a81548173ffffffffffffffffffffffffffffffffffffffff021916908373ffffffffffffffffffffffffffffffffffffffff160217905550737636c6d42042065ff52434fa8fa9cf1a2004f582600c60006101000a81548173ffffffffffffffffffffffffffffffffffffffff021916908373ffffffffffffffffffffffffffffffffffffffff1602179055506040518060400160405280600b60009054906101000a900473ffffffffffffffffffffffffffffffffffffffff1673ffffffffffffffffffffffffffffffffffffffff1673ffffffffffffffffffffffffffffffffffffffff168152602001600c60009054906101000a900473ffffffffffffffffffffffffffffffffffffffff1673ffffffffffffffffffffffffffffffffffffffff1673ffffffffffffffffffffffffffffffffffffffff16815250600d906002620001719291906200073a565b506040518060400160405280603260ff168152602001603260ff16815250600e906002620001a1929190620007c9565b50600d8054806020026020016040519081016040528092919081815260200182805480156200022657602002820191906000526020600020905b8160009054906101000a900473ffffffffffffffffffffffffffffffffffffffff1673ffffffffffffffffffffffffffffffffffffffff1681526020019060010190808311620001db575b5050505050600e8054806020026020016040519081016040528092919081815260200182805480156200027957602002820191906000526020600020905b81548152602001906001019080831162000264575b50505050506200029e620002926200043460201b60201c565b6200043c60201b60201c565b600180819055508051825114620002ec576040517f08c379a0000000000000000000000000000000000000000000000000000000008152600401620002e39062000973565b60405180910390fd5b600082511162000333576040517f08c379a00000000000000000000000000000000000000000000000000000000081526004016200032a90620009b7565b60405180910390fd5b60005b8251811015620003ea57620003d48382815181106200037e577f4e487b7100000000000000000000000000000000000000000000000000000000600052603260045260246000fd5b6020026020010151838381518110620003c0577f4e487b7100000000000000000000000000000000000000000000000000000000600052603260045260246000fd5b60200260200101516200050060201b60201c565b8080620003e19062000aa7565b91505062000336565b50505033600a60006101000a81548173ffffffffffffffffffffffffffffffffffffffff021916908373ffffffffffffffffffffffffffffffffffffffff16021790555062000c63565b600033905090565b60008060009054906101000a900473ffffffffffffffffffffffffffffffffffffffff169050816000806101000a81548173ffffffffffffffffffffffffffffffffffffffff021916908373ffffffffffffffffffffffffffffffffffffffff1602179055508173ffffffffffffffffffffffffffffffffffffffff168173ffffffffffffffffffffffffffffffffffffffff167f8be0079c531659141344cd1fd0a4f28419497f9722a3daafe3b4186f6b6457e060405160405180910390a35050565b600073ffffffffffffffffffffffffffffffffffffffff168273ffffffffffffffffffffffffffffffffffffffff16141562000573576040517f08c379a00000000000000000000000000000000000000000000000000000000081526004016200056a9062000951565b60405180910390fd5b60008111620005b9576040517f08c379a0000000000000000000000000000000000000000000000000000000008152600401620005b090620009d9565b60405180910390fd5b6000600460008473ffffffffffffffffffffffffffffffffffffffff1673ffffffffffffffffffffffffffffffffffffffff16815260200190815260200160002054146200063e576040517f08c379a0000000000000000000000000000000000000000000000000000000008152600401620006359062000995565b60405180910390fd5b6006829080600181540180825580915050600190039060005260206000200160009091909190916101000a81548173ffffffffffffffffffffffffffffffffffffffff021916908373ffffffffffffffffffffffffffffffffffffffff16021790555080600460008473ffffffffffffffffffffffffffffffffffffffff1673ffffffffffffffffffffffffffffffffffffffff1681526020019081526020016000208190555080600254620006f5919062000a0c565b6002819055507f40c340f65e17194d14ddddb073d3c9f888e3cb52b5aae0c6c7706b4fbc905fac82826040516200072e92919062000924565b60405180910390a15050565b828054828255906000526020600020908101928215620007b6579160200282015b82811115620007b55782518260006101000a81548173ffffffffffffffffffffffffffffffffffffffff021916908373ffffffffffffffffffffffffffffffffffffffff160217905550916020019190600101906200075b565b5b509050620007c5919062000820565b5090565b8280548282559060005260206000209081019282156200080d579160200282015b828111156200080c578251829060ff16905591602001919060010190620007ea565b5b5090506200081c919062000820565b5090565b5b808211156200083b57600081600090555060010162000821565b5090565b6200084a8162000a69565b82525050565b60006200085f602c83620009fb565b91506200086c8262000b24565b604082019050919050565b600062000886603283620009fb565b9150620008938262000b73565b604082019050919050565b6000620008ad602b83620009fb565b9150620008ba8262000bc2565b604082019050919050565b6000620008d4601a83620009fb565b9150620008e18262000c11565b602082019050919050565b6000620008fb601d83620009fb565b9150620009088262000c3a565b602082019050919050565b6200091e8162000a9d565b82525050565b60006040820190506200093b60008301856200083f565b6200094a602083018462000913565b9392505050565b600060208201905081810360008301526200096c8162000850565b9050919050565b600060208201905081810360008301526200098e8162000877565b9050919050565b60006020820190508181036000830152620009b0816200089e565b9050919050565b60006020820190508181036000830152620009d281620008c5565b9050919050565b60006020820190508181036000830152620009f481620008ec565b9050919050565b600082825260208201905092915050565b600062000a198262000a9d565b915062000a268362000a9d565b9250827fffffffffffffffffffffffffffffffffffffffffffffffffffffffffffffffff0382111562000a5e5762000a5d62000af5565b5b828201905092915050565b600062000a768262000a7d565b9050919050565b600073ffffffffffffffffffffffffffffffffffffffff82169050919050565b6000819050919050565b600062000ab48262000a9d565b91507fffffffffffffffffffffffffffffffffffffffffffffffffffffffffffffffff82141562000aea5762000ae962000af5565b5b600182019050919050565b7f4e487b7100000000000000000000000000000000000000000000000000000000600052601160045260246000fd5b7f5061796d656e7453706c69747465723a206163636f756e74206973207468652060008201527f7a65726f20616464726573730000000000000000000000000000000000000000602082015250565b7f5061796d656e7453706c69747465723a2070617965657320616e64207368617260008201527f6573206c656e677468206d69736d617463680000000000000000000000000000602082015250565b7f5061796d656e7453706c69747465723a206163636f756e7420616c726561647960008201527f2068617320736861726573000000000000000000000000000000000000000000602082015250565b7f5061796d656e7453706c69747465723a206e6f20706179656573000000000000600082015250565b7f5061796d656e7453706c69747465723a20736861726573206172652030000000600082015250565b61552e8062000c736000396000f3fe6080604052600436106200018d5760003560e01c80638da5cb5b11620000e5578063ce606ee01162000097578063d79779b2116200006d578063d79779b21462000648578063e33b7de3146200068c578063e9300c6c14620006bc578063f2fde38b14620006f257620001d9565b8063ce606ee01462000590578063ce7c2ac214620005c0578063d6fabc95146200060457620001d9565b80638da5cb5b14620004225780638f2c794c14620004525780639852595c1462000480578063a3f8eace14620004c4578063b9db15b41462000508578063c45ac050146200054c57620001d9565b80634e4cc369116200013f5780634e4cc36914620002fc5780636374b11b146200031c578063715018a614620003605780638642269e146200037a5780638aedb87d146200039a5780638b83209b14620003de57620001d9565b80631916558714620001de5780632f160307146200020c5780633253e317146200022c5780633a98ef39146200025a578063406072a9146200028a57806348b7504414620002ce57620001d9565b36620001d9577f6ef95f06320e7a25a04a175ca677b7052bdd97131872c2192525a629f51be770620001be62000720565b34604051620001cf929190620038ad565b60405180910390a1005b600080fd5b348015620001eb57600080fd5b506200020a600480360381019062000204919062003048565b62000728565b005b6200022a60048036038101906200022491906200314e565b620008b6565b005b3480156200023957600080fd5b50620002586004803603810190620002529190620030a0565b62000ce8565b005b3480156200026757600080fd5b506200027262000dfa565b60405162000281919062003bea565b60405180910390f35b3480156200029757600080fd5b50620002b66004803603810190620002b091906200310d565b62000e04565b604051620002c5919062003bea565b60405180910390f35b348015620002db57600080fd5b50620002fa6004803603810190620002f491906200310d565b62000e8b565b005b6200031a600480360381019062000314919062003235565b620010ad565b005b3480156200032957600080fd5b5062000348600480360381019062000342919062002ff0565b6200140b565b60405162000357919062003bea565b60405180910390f35b3480156200036d57600080fd5b50620003786200142c565b005b62000398600480360381019062000392919062003235565b62001444565b005b348015620003a757600080fd5b50620003c66004803603810190620003c0919062002ff0565b6200188b565b604051620003d5919062003bc6565b60405180910390f35b348015620003eb57600080fd5b506200040a600480360381019062000404919062003235565b62001b41565b60405162000419919062003809565b60405180910390f35b3480156200042f57600080fd5b506200043a62001bb0565b60405162000449919062003809565b60405180910390f35b3480156200045f57600080fd5b506200047e60048036038101906200047891906200328d565b62001bd9565b005b3480156200048d57600080fd5b50620004ac6004803603810190620004a6919062002ff0565b62001d3c565b604051620004bb919062003bea565b60405180910390f35b348015620004d157600080fd5b50620004f06004803603810190620004ea919062002ff0565b62001d85565b604051620004ff919062003bea565b60405180910390f35b3480156200051557600080fd5b506200053460048036038101906200052e919062003235565b62001dc0565b60405162000543919062003bc6565b60405180910390f35b3480156200055957600080fd5b506200057860048036038101906200057291906200310d565b62001fd2565b60405162000587919062003bea565b60405180910390f35b3480156200059d57600080fd5b50620005a86200209e565b604051620005b7919062003826565b60405180910390f35b348015620005cd57600080fd5b50620005ec6004803603810190620005e6919062002ff0565b620020c4565b604051620005fb919062003bea565b60405180910390f35b3480156200061157600080fd5b506200063060048036038101906200062a919062003235565b6200210d565b6040516200063f919062003809565b60405180910390f35b3480156200065557600080fd5b506200067460048036038101906200066e9190620030e1565b6200214d565b60405162000683919062003bea565b60405180910390f35b3480156200069957600080fd5b50620006a462002196565b604051620006b3919062003bea565b60405180910390f35b620006da6004803603810190620006d49190620031db565b620021a0565b604051620006e9919062003bea565b60405180910390f35b348015620006ff57600080fd5b506200071e600480360381019062000718919062002ff0565b62002433565b005b600033905090565b6000600460008373ffffffffffffffffffffffffffffffffffffffff1673ffffffffffffffffffffffffffffffffffffffff1681526020019081526020016000205411620007ad576040517f08c379a0000000000000000000000000000000000000000000000000000000008152600401620007a490620039c8565b60405180910390fd5b6000620007ba8262001d85565b9050600081141562000803576040517f08c379a0000000000000000000000000000000000000000000000000000000008152600401620007fa9062003a72565b60405180910390fd5b806003600082825462000817919062003cb4565b9250508190555080600560008473ffffffffffffffffffffffffffffffffffffffff1673ffffffffffffffffffffffffffffffffffffffff16815260200190815260200160002060008282540192505081905550620008778282620024be565b7fdf20fd1e76bc69d672e4814fafb2c449bba3a5369d8359adf9e05e6fde87b0568282604051620008aa92919062003843565b60405180910390a15050565b620008c0620025bc565b6000620008cd826200210d565b905060008190506001600f600085815260200190815260200160002060050160009054906101000a900460ff16600281111562000933577f4e487b7100000000000000000000000000000000000000000000000000000000600052602160045260246000fd5b1462000976576040517f08c379a00000000000000000000000000000000000000000000000000000000081526004016200096d9062003b1c565b60405180910390fd5b6000601160009054906101000a900460ff166001811115620009c1577f4e487b7100000000000000000000000000000000000000000000000000000000600052602160045260246000fd5b1462000a04576040517f08c379a0000000000000000000000000000000000000000000000000000000008152600401620009fb9062003b1c565b60405180910390fd5b62000a938686868473ffffffffffffffffffffffffffffffffffffffff1663603daf9a6040518163ffffffff1660e01b815260040160206040518083038186803b15801562000a5257600080fd5b505afa15801562000a67573d6000803e3d6000fd5b505050506040513d601f19601f8201168201806040525081019062000a8d91906200301c565b6200260f565b62000ad5576040517f08c379a000000000000000000000000000000000000000000000000000000000815260040162000acc90620039ea565b60405180910390fd5b8073ffffffffffffffffffffffffffffffffffffffff1663a6d339c5336040518263ffffffff1660e01b815260040162000b10919062003826565b600060405180830381600087803b15801562000b2b57600080fd5b505af115801562000b40573d6000803e3d6000fd5b505050506002600f600085815260200190815260200160002060050160006101000a81548160ff0219169083600281111562000ba5577f4e487b7100000000000000000000000000000000000000000000000000000000600052602160045260246000fd5b02179055508073ffffffffffffffffffffffffffffffffffffffff1663603daf9a6040518163ffffffff1660e01b815260040160206040518083038186803b15801562000bf157600080fd5b505afa15801562000c06573d6000803e3d6000fd5b505050506040513d601f19601f8201168201806040525081019062000c2c91906200301c565b600f600085815260200190815260200160002060020160006101000a81548173ffffffffffffffffffffffffffffffffffffffff021916908373ffffffffffffffffffffffffffffffffffffffff1602179055506000600f600085815260200190815260200160002060030160006101000a81548173ffffffffffffffffffffffffffffffffffffffff021916908373ffffffffffffffffffffffffffffffffffffffff160217905550505062000ce262002673565b50505050565b600062000cf5826200210d565b90508073ffffffffffffffffffffffffffffffffffffffff1663603daf9a6040518163ffffffff1660e01b815260040160206040518083038186803b15801562000d3e57600080fd5b505afa15801562000d53573d6000803e3d6000fd5b505050506040513d601f19601f8201168201806040525081019062000d7991906200301c565b73ffffffffffffffffffffffffffffffffffffffff163373ffffffffffffffffffffffffffffffffffffffff161462000db157600080fd5b82601060003373ffffffffffffffffffffffffffffffffffffffff1673ffffffffffffffffffffffffffffffffffffffff16815260200190815260200160002081905550505050565b6000600254905090565b6000600860008473ffffffffffffffffffffffffffffffffffffffff1673ffffffffffffffffffffffffffffffffffffffff16815260200190815260200160002060008373ffffffffffffffffffffffffffffffffffffffff1673ffffffffffffffffffffffffffffffffffffffff16815260200190815260200160002054905092915050565b6000600460008373ffffffffffffffffffffffffffffffffffffffff1673ffffffffffffffffffffffffffffffffffffffff168152602001908152602001600020541162000f10576040517f08c379a000000000000000000000000000000000000000000000000000000000815260040162000f0790620039c8565b60405180910390fd5b600062000f1e838362001fd2565b9050600081141562000f67576040517f08c379a000000000000000000000000000000000000000000000000000000000815260040162000f5e9062003a72565b60405180910390fd5b80600760008573ffffffffffffffffffffffffffffffffffffffff1673ffffffffffffffffffffffffffffffffffffffff168152602001908152602001600020600082825462000fb8919062003cb4565b9250508190555080600860008573ffffffffffffffffffffffffffffffffffffffff1673ffffffffffffffffffffffffffffffffffffffff16815260200190815260200160002060008473ffffffffffffffffffffffffffffffffffffffff1673ffffffffffffffffffffffffffffffffffffffff16815260200190815260200160002060008282540192505081905550620010568383836200267c565b8273ffffffffffffffffffffffffffffffffffffffff167f3be5b7a71e84ed12875d241991c70855ac5817d847039e17a9d895c1ceb0f18a8383604051620010a0929190620038ad565b60405180910390a2505050565b620010b7620025bc565b6000620010c4826200210d565b905060008190506001600f600085815260200190815260200160002060050160009054906101000a900460ff1660028111156200112a577f4e487b7100000000000000000000000000000000000000000000000000000000600052602160045260246000fd5b146200116d576040517f08c379a0000000000000000000000000000000000000000000000000000000008152600401620011649062003b1c565b60405180910390fd5b6001601160009054906101000a900460ff166001811115620011b8577f4e487b7100000000000000000000000000000000000000000000000000000000600052602160045260246000fd5b14620011fb576040517f08c379a0000000000000000000000000000000000000000000000000000000008152600401620011f29062003b1c565b60405180910390fd5b8073ffffffffffffffffffffffffffffffffffffffff166324896245336040518263ffffffff1660e01b815260040162001236919062003826565b600060405180830381600087803b1580156200125157600080fd5b505af115801562001266573d6000803e3d6000fd5b505050506002600f600085815260200190815260200160002060050160006101000a81548160ff02191690836002811115620012cb577f4e487b7100000000000000000000000000000000000000000000000000000000600052602160045260246000fd5b02179055508073ffffffffffffffffffffffffffffffffffffffff1663603daf9a6040518163ffffffff1660e01b815260040160206040518083038186803b1580156200131757600080fd5b505afa1580156200132c573d6000803e3d6000fd5b505050506040513d601f19601f820116820180604052508101906200135291906200301c565b600f600085815260200190815260200160002060020160006101000a81548173ffffffffffffffffffffffffffffffffffffffff021916908373ffffffffffffffffffffffffffffffffffffffff1602179055506000600f600085815260200190815260200160002060030160006101000a81548173ffffffffffffffffffffffffffffffffffffffff021916908373ffffffffffffffffffffffffffffffffffffffff16021790555050506200140862002673565b50565b60008173ffffffffffffffffffffffffffffffffffffffff16319050919050565b6200143662002706565b6200144260006200278b565b565b6200144e620025bc565b60006200145b8262001dc0565b60800151905060006200146e8362001dc0565b6040015190506000338230604051620014879062002d09565b620014959392919062003870565b604051809103906000f080158015620014b2573d6000803e3d6000fd5b50905060008173ffffffffffffffffffffffffffffffffffffffff1663638b2f626040518163ffffffff1660e01b815260040160206040518083038186803b158015620014fe57600080fd5b505afa15801562001513573d6000803e3d6000fd5b505050506040513d601f19601f820116820180604052508101906200153991906200301c565b90506000600f600087815260200190815260200160002060050160009054906101000a900460ff1660028111156200159a577f4e487b7100000000000000000000000000000000000000000000000000000000600052602160045260246000fd5b14620015dd576040517f08c379a0000000000000000000000000000000000000000000000000000000008152600401620015d49062003984565b60405180910390fd5b8334101562001623576040517f08c379a00000000000000000000000000000000000000000000000000000000081526004016200161a90620039a6565b60405180910390fd5b8273ffffffffffffffffffffffffffffffffffffffff163373ffffffffffffffffffffffffffffffffffffffff16141562001695576040517f08c379a00000000000000000000000000000000000000000000000000000000081526004016200168c9062003ad8565b60405180910390fd5b600073ffffffffffffffffffffffffffffffffffffffff168173ffffffffffffffffffffffffffffffffffffffff16141562001708576040517f08c379a0000000000000000000000000000000000000000000000000000000008152600401620016ff9062003ab6565b60405180910390fd5b80600f600087815260200190815260200160002060030160006101000a81548173ffffffffffffffffffffffffffffffffffffffff021916908373ffffffffffffffffffffffffffffffffffffffff1602179055508073ffffffffffffffffffffffffffffffffffffffff166108fc349081150290604051600060405180830381858888f19350505050158015620017a4573d6000803e3d6000fd5b508173ffffffffffffffffffffffffffffffffffffffff1663f340fa01336040518263ffffffff1660e01b8152600401620017e0919062003826565b600060405180830381600087803b158015620017fb57600080fd5b505af115801562001810573d6000803e3d6000fd5b505050506001600f600087815260200190815260200160002060050160006101000a81548160ff0219169083600281111562001875577f4e487b7100000000000000000000000000000000000000000000000000000000600052602160045260246000fd5b0217905550505050506200188862002673565b50565b6200189562002d17565b6000600190505b620018a860096200284f565b811162001b3a57600f600082815260200190815260200160002060020160009054906101000a900473ffffffffffffffffffffffffffffffffffffffff1673ffffffffffffffffffffffffffffffffffffffff168373ffffffffffffffffffffffffffffffffffffffff16141562001b2457600f60008281526020019081526020016000206040518060c001604052908160008201548152602001600182018054620019549062003f0b565b80601f0160208091040260200160405190810160405280929190818152602001828054620019829062003f0b565b8015620019d35780601f10620019a757610100808354040283529160200191620019d3565b820191906000526020600020905b815481529060010190602001808311620019b557829003601f168201915b505050505081526020016002820160009054906101000a900473ffffffffffffffffffffffffffffffffffffffff1673ffffffffffffffffffffffffffffffffffffffff1673ffffffffffffffffffffffffffffffffffffffff1681526020016003820160009054906101000a900473ffffffffffffffffffffffffffffffffffffffff1673ffffffffffffffffffffffffffffffffffffffff1673ffffffffffffffffffffffffffffffffffffffff168152602001600482015481526020016005820160009054906101000a900460ff16600281111562001ade577f4e487b7100000000000000000000000000000000000000000000000000000000600052602160045260246000fd5b600281111562001b17577f4e487b7100000000000000000000000000000000000000000000000000000000600052602160045260246000fd5b8152505091505062001b3c565b808062001b319062003f77565b9150506200189c565b505b919050565b60006006828154811062001b7e577f4e487b7100000000000000000000000000000000000000000000000000000000600052603260045260246000fd5b9060005260206000200160009054906101000a900473ffffffffffffffffffffffffffffffffffffffff169050919050565b60008060009054906101000a900473ffffffffffffffffffffffffffffffffffffffff16905090565b600062001be6836200210d565b9050600081905060008173ffffffffffffffffffffffffffffffffffffffff1663603daf9a6040518163ffffffff1660e01b815260040160206040518083038186803b15801562001c3657600080fd5b505afa15801562001c4b573d6000803e3d6000fd5b505050506040513d601f19601f8201168201806040525081019062001c7191906200301c565b90508073ffffffffffffffffffffffffffffffffffffffff163373ffffffffffffffffffffffffffffffffffffffff161462001ce4576040517f08c379a000000000000000000000000000000000000000000000000000000000815260040162001cdb9062003a94565b60405180910390fd5b83601160006101000a81548160ff0219169083600181111562001d30577f4e487b7100000000000000000000000000000000000000000000000000000000600052602160045260246000fd5b02179055505050505050565b6000600560008373ffffffffffffffffffffffffffffffffffffffff1673ffffffffffffffffffffffffffffffffffffffff168152602001908152602001600020549050919050565b60008062001d9262002196565b4762001d9f919062003cb4565b905062001db8838262001db28662001d3c565b6200285d565b915050919050565b62001dca62002d17565b600f60008381526020019081526020016000206040518060c00160405290816000820154815260200160018201805462001e049062003f0b565b80601f016020809104026020016040519081016040528092919081815260200182805462001e329062003f0b565b801562001e835780601f1062001e575761010080835404028352916020019162001e83565b820191906000526020600020905b81548152906001019060200180831162001e6557829003601f168201915b505050505081526020016002820160009054906101000a900473ffffffffffffffffffffffffffffffffffffffff1673ffffffffffffffffffffffffffffffffffffffff1673ffffffffffffffffffffffffffffffffffffffff1681526020016003820160009054906101000a900473ffffffffffffffffffffffffffffffffffffffff1673ffffffffffffffffffffffffffffffffffffffff1673ffffffffffffffffffffffffffffffffffffffff168152602001600482015481526020016005820160009054906101000a900460ff16600281111562001f8e577f4e487b7100000000000000000000000000000000000000000000000000000000600052602160045260246000fd5b600281111562001fc7577f4e487b7100000000000000000000000000000000000000000000000000000000600052602160045260246000fd5b815250509050919050565b60008062001fe0846200214d565b8473ffffffffffffffffffffffffffffffffffffffff166370a08231306040518263ffffffff1660e01b81526004016200201b919062003809565b60206040518083038186803b1580156200203457600080fd5b505afa15801562002049573d6000803e3d6000fd5b505050506040513d601f19601f820116820180604052508101906200206f919062003261565b6200207b919062003cb4565b90506200209583826200208f878762000e04565b6200285d565b91505092915050565b600a60009054906101000a900473ffffffffffffffffffffffffffffffffffffffff1681565b6000600460008373ffffffffffffffffffffffffffffffffffffffff1673ffffffffffffffffffffffffffffffffffffffff168152602001908152602001600020549050919050565b6000600f600083815260200190815260200160002060030160009054906101000a900473ffffffffffffffffffffffffffffffffffffffff169050919050565b6000600760008373ffffffffffffffffffffffffffffffffffffffff1673ffffffffffffffffffffffffffffffffffffffff168152602001908152602001600020549050919050565b6000600354905090565b6000620021ac620025bc565b60008211620021f2576040517f08c379a0000000000000000000000000000000000000000000000000000000008152600401620021e99062003ba4565b60405180910390fd5b620021fe6009620028d1565b60006200220c60096200284f565b90506040518060c001604052808281526020018581526020013373ffffffffffffffffffffffffffffffffffffffff168152602001600073ffffffffffffffffffffffffffffffffffffffff168152602001848152602001600060028111156200229f577f4e487b7100000000000000000000000000000000000000000000000000000000600052602160045260246000fd5b815250600f6000838152602001908152602001600020600082015181600001556020820151816001019080519060200190620022dd92919062002db2565b5060408201518160020160006101000a81548173ffffffffffffffffffffffffffffffffffffffff021916908373ffffffffffffffffffffffffffffffffffffffff16021790555060608201518160030160006101000a81548173ffffffffffffffffffffffffffffffffffffffff021916908373ffffffffffffffffffffffffffffffffffffffff1602179055506080820151816004015560a08201518160050160006101000a81548160ff02191690836002811115620023c8577f4e487b7100000000000000000000000000000000000000000000000000000000600052602160045260246000fd5b0217905550905050620023dc60096200284f565b7f2144affde800b4ad301cd581014aa077416fc2542818c2689c41e4bcfd234db78533600087600060405162002417959493929190620038fe565b60405180910390a2809150506200242d62002673565b92915050565b6200243d62002706565b600073ffffffffffffffffffffffffffffffffffffffff168173ffffffffffffffffffffffffffffffffffffffff161415620024b0576040517f08c379a0000000000000000000000000000000000000000000000000000000008152600401620024a79062003962565b60405180910390fd5b620024bb816200278b565b50565b8047101562002504576040517f08c379a0000000000000000000000000000000000000000000000000000000008152600401620024fb9062003a2e565b60405180910390fd5b60008273ffffffffffffffffffffffffffffffffffffffff16826040516200252c90620037f2565b60006040518083038185875af1925050503d80600081146200256b576040519150601f19603f3d011682016040523d82523d6000602084013e62002570565b606091505b5050905080620025b7576040517f08c379a0000000000000000000000000000000000000000000000000000000008152600401620025ae9062003a0c565b60405180910390fd5b505050565b6002600154141562002605576040517f08c379a0000000000000000000000000000000000000000000000000000000008152600401620025fc9062003b82565b60405180910390fd5b6002600181905550565b6000620026696200262086620028e7565b858580806020026020016040519081016040528093929190818152602001838360200280828437600081840152601f19601f820116905080830192505050505050508462002919565b9050949350505050565b60018081905550565b620027018363a9059cbb60e01b84846040516024016200269e929190620038ad565b604051602081830303815290604052907bffffffffffffffffffffffffffffffffffffffffffffffffffffffff19166020820180517bffffffffffffffffffffffffffffffffffffffffffffffffffffffff838183161783525050505062002970565b505050565b6200271062000720565b73ffffffffffffffffffffffffffffffffffffffff166200273062001bb0565b73ffffffffffffffffffffffffffffffffffffffff161462002789576040517f08c379a0000000000000000000000000000000000000000000000000000000008152600401620027809062003afa565b60405180910390fd5b565b60008060009054906101000a900473ffffffffffffffffffffffffffffffffffffffff169050816000806101000a81548173ffffffffffffffffffffffffffffffffffffffff021916908373ffffffffffffffffffffffffffffffffffffffff1602179055508173ffffffffffffffffffffffffffffffffffffffff168173ffffffffffffffffffffffffffffffffffffffff167f8be0079c531659141344cd1fd0a4f28419497f9722a3daafe3b4186f6b6457e060405160405180910390a35050565b600081600001549050919050565b600081600254600460008773ffffffffffffffffffffffffffffffffffffffff1673ffffffffffffffffffffffffffffffffffffffff1681526020019081526020016000205485620028b0919062003d49565b620028bc919062003d11565b620028c8919062003daa565b90509392505050565b6001816000016000828254019250508190555050565b600081604051602001620028fc9190620037d9565b604051602081830303815290604052805190602001209050919050565b60006200296783601060008573ffffffffffffffffffffffffffffffffffffffff1673ffffffffffffffffffffffffffffffffffffffff168152602001908152602001600020548662002a3f565b90509392505050565b6000620029d4826040518060400160405280602081526020017f5361666545524332303a206c6f772d6c6576656c2063616c6c206661696c65648152508573ffffffffffffffffffffffffffffffffffffffff1662002a589092919063ffffffff16565b905060008151111562002a3a5780806020019051810190620029f7919062003074565b62002a39576040517f08c379a000000000000000000000000000000000000000000000000000000000815260040162002a309062003b60565b60405180910390fd5b5b505050565b60008262002a4e858462002a72565b1490509392505050565b606062002a69848460008562002af5565b90509392505050565b60008082905060005b845181101562002aea5762002ad28286838151811062002ac4577f4e487b7100000000000000000000000000000000000000000000000000000000600052603260045260246000fd5b602002602001015162002bcb565b9150808062002ae19062003f77565b91505062002a7b565b508091505092915050565b60608247101562002b3d576040517f08c379a000000000000000000000000000000000000000000000000000000000815260040162002b349062003a50565b60405180910390fd5b6000808673ffffffffffffffffffffffffffffffffffffffff16858760405162002b689190620037c0565b60006040518083038185875af1925050503d806000811462002ba7576040519150601f19603f3d011682016040523d82523d6000602084013e62002bac565b606091505b509150915062002bbf8783838762002bfc565b92505050949350505050565b600081831062002be75762002be1828462002c7c565b62002bf4565b62002bf3838362002c7c565b5b905092915050565b6060831562002c675760008351141562002c5e5762002c1b8562002c93565b62002c5d576040517f08c379a000000000000000000000000000000000000000000000000000000000815260040162002c549062003b3e565b60405180910390fd5b5b82905062002c74565b62002c73838362002cb6565b5b949350505050565b600082600052816020526040600020905092915050565b6000808273ffffffffffffffffffffffffffffffffffffffff163b119050919050565b60008251111562002cca5781518083602001fd5b806040517f08c379a000000000000000000000000000000000000000000000000000000000815260040162002d009190620038da565b60405180910390fd5b610f84806200457583390190565b6040518060c001604052806000815260200160608152602001600073ffffffffffffffffffffffffffffffffffffffff168152602001600073ffffffffffffffffffffffffffffffffffffffff168152602001600081526020016000600281111562002dac577f4e487b7100000000000000000000000000000000000000000000000000000000600052602160045260246000fd5b81525090565b82805462002dc09062003f0b565b90600052602060002090601f01602090048101928262002de4576000855562002e30565b82601f1062002dff57805160ff191683800117855562002e30565b8280016001018555821562002e30579182015b8281111562002e2f57825182559160200191906001019062002e12565b5b50905062002e3f919062002e43565b5090565b5b8082111562002e5e57600081600090555060010162002e44565b5090565b600062002e7962002e738462003c30565b62003c07565b90508281526020810184848401111562002e9257600080fd5b62002e9f84828562003ec6565b509392505050565b60008135905062002eb881620044c7565b92915050565b60008151905062002ecf81620044c7565b92915050565b60008135905062002ee681620044e1565b92915050565b60008083601f84011262002eff57600080fd5b8235905067ffffffffffffffff81111562002f1957600080fd5b60208301915083602082028301111562002f3257600080fd5b9250929050565b60008151905062002f4a81620044fb565b92915050565b60008135905062002f618162004515565b92915050565b60008135905062002f78816200452f565b92915050565b60008135905062002f8f8162004549565b92915050565b600082601f83011262002fa757600080fd5b813562002fb984826020860162002e62565b91505092915050565b60008135905062002fd3816200455a565b92915050565b60008151905062002fea816200455a565b92915050565b6000602082840312156200300357600080fd5b6000620030138482850162002ea7565b91505092915050565b6000602082840312156200302f57600080fd5b60006200303f8482850162002ebe565b91505092915050565b6000602082840312156200305b57600080fd5b60006200306b8482850162002ed5565b91505092915050565b6000602082840312156200308757600080fd5b6000620030978482850162002f39565b91505092915050565b60008060408385031215620030b457600080fd5b6000620030c48582860162002f50565b9250506020620030d78582860162002fc2565b9150509250929050565b600060208284031215620030f457600080fd5b6000620031048482850162002f67565b91505092915050565b600080604083850312156200312157600080fd5b6000620031318582860162002f67565b9250506020620031448582860162002ea7565b9150509250929050565b600080600080606085870312156200316557600080fd5b600085013567ffffffffffffffff8111156200318057600080fd5b6200318e8782880162002f95565b945050602085013567ffffffffffffffff811115620031ac57600080fd5b620031ba8782880162002eec565b93509350506040620031cf8782880162002fc2565b91505092959194509250565b60008060408385031215620031ef57600080fd5b600083013567ffffffffffffffff8111156200320a57600080fd5b620032188582860162002f95565b92505060206200322b8582860162002fc2565b9150509250929050565b6000602082840312156200324857600080fd5b6000620032588482850162002fc2565b91505092915050565b6000602082840312156200327457600080fd5b6000620032848482850162002fd9565b91505092915050565b60008060408385031215620032a157600080fd5b6000620032b18582860162002fc2565b9250506020620032c48582860162002f7e565b9150509250929050565b620032d98162003e76565b82525050565b620032ea8162003df9565b82525050565b620032fb8162003df9565b82525050565b6200330c8162003de5565b82525050565b60006200331f8262003c66565b6200332b818562003c7c565b93506200333d81856020860162003ed5565b80840191505092915050565b620033548162003e8a565b82525050565b620033658162003e8a565b82525050565b6000620033788262003c71565b62003384818562003c87565b93506200339681856020860162003ed5565b620033a181620040b0565b840191505092915050565b6000620033b98262003c71565b620033c5818562003c98565b9350620033d781856020860162003ed5565b620033e281620040b0565b840191505092915050565b6000620033fa8262003c71565b62003406818562003ca9565b93506200341881856020860162003ed5565b80840191505092915050565b60006200343360268362003c98565b91506200344082620040c1565b604082019050919050565b60006200345a60308362003c98565b9150620034678262004110565b604082019050919050565b600062003481601c8362003c98565b91506200348e826200415f565b602082019050919050565b6000620034a860268362003c98565b9150620034b58262004188565b604082019050919050565b6000620034cf60158362003c98565b9150620034dc82620041d7565b602082019050919050565b6000620034f6603a8362003c98565b9150620035038262004200565b604082019050919050565b60006200351d601d8362003c98565b91506200352a826200424f565b602082019050919050565b60006200354460268362003c98565b9150620035518262004278565b604082019050919050565b60006200356b602b8362003c98565b91506200357882620042c7565b604082019050919050565b600062003592601a8362003c98565b91506200359f8262004316565b602082019050919050565b6000620035b960138362003c98565b9150620035c6826200433f565b602082019050919050565b6000620035e0601a8362003c98565b9150620035ed8262004368565b602082019050919050565b60006200360760208362003c98565b9150620036148262004391565b602082019050919050565b60006200362e60118362003c98565b91506200363b82620043ba565b602082019050919050565b60006200365560008362003c7c565b91506200366282620043e3565b600082019050919050565b60006200367c601d8362003c98565b91506200368982620043e6565b602082019050919050565b6000620036a3602a8362003c98565b9150620036b0826200440f565b604082019050919050565b6000620036ca601f8362003c98565b9150620036d7826200445e565b602082019050919050565b6000620036f1601c8362003c98565b9150620036fe8262004487565b602082019050919050565b600060c0830160008301516200372360008601826200379e565b50602083015184820360208601526200373d82826200336b565b9150506040830151620037546040860182620032df565b506060830151620037696060860182620032df565b5060808301516200377e60808601826200379e565b5060a08301516200379360a086018262003349565b508091505092915050565b620037a98162003e6c565b82525050565b620037ba8162003e6c565b82525050565b6000620037ce828462003312565b915081905092915050565b6000620037e78284620033ed565b915081905092915050565b6000620037ff8262003646565b9150819050919050565b600060208201905062003820600083018462003301565b92915050565b60006020820190506200383d6000830184620032f0565b92915050565b60006040820190506200385a6000830185620032ce565b620038696020830184620037af565b9392505050565b600060608201905062003887600083018662003301565b620038966020830185620032f0565b620038a5604083018462003301565b949350505050565b6000604082019050620038c4600083018562003301565b620038d36020830184620037af565b9392505050565b60006020820190508181036000830152620038f68184620033ac565b905092915050565b600060a08201905081810360008301526200391a8188620033ac565b90506200392b602083018762003301565b6200393a604083018662003301565b620039496060830185620037af565b6200395860808301846200335a565b9695505050505050565b600060208201905081810360008301526200397d8162003424565b9050919050565b600060208201905081810360008301526200399f816200344b565b9050919050565b60006020820190508181036000830152620039c18162003472565b9050919050565b60006020820190508181036000830152620039e38162003499565b9050919050565b6000602082019050818103600083015262003a0581620034c0565b9050919050565b6000602082019050818103600083015262003a2781620034e7565b9050919050565b6000602082019050818103600083015262003a49816200350e565b9050919050565b6000602082019050818103600083015262003a6b8162003535565b9050919050565b6000602082019050818103600083015262003a8d816200355c565b9050919050565b6000602082019050818103600083015262003aaf8162003583565b9050919050565b6000602082019050818103600083015262003ad181620035aa565b9050919050565b6000602082019050818103600083015262003af381620035d1565b9050919050565b6000602082019050818103600083015262003b1581620035f8565b9050919050565b6000602082019050818103600083015262003b37816200361f565b9050919050565b6000602082019050818103600083015262003b59816200366d565b9050919050565b6000602082019050818103600083015262003b7b8162003694565b9050919050565b6000602082019050818103600083015262003b9d81620036bb565b9050919050565b6000602082019050818103600083015262003bbf81620036e2565b9050919050565b6000602082019050818103600083015262003be2818462003709565b905092915050565b600060208201905062003c016000830184620037af565b92915050565b600062003c1362003c26565b905062003c21828262003f41565b919050565b6000604051905090565b600067ffffffffffffffff82111562003c4e5762003c4d62004081565b5b62003c5982620040b0565b9050602081019050919050565b600081519050919050565b600081519050919050565b600081905092915050565b600082825260208201905092915050565b600082825260208201905092915050565b600081905092915050565b600062003cc18262003e6c565b915062003cce8362003e6c565b9250827fffffffffffffffffffffffffffffffffffffffffffffffffffffffffffffffff0382111562003d065762003d0562003fc5565b5b828201905092915050565b600062003d1e8262003e6c565b915062003d2b8362003e6c565b92508262003d3e5762003d3d62003ff4565b5b828204905092915050565b600062003d568262003e6c565b915062003d638362003e6c565b9250817fffffffffffffffffffffffffffffffffffffffffffffffffffffffffffffffff048311821515161562003d9f5762003d9e62003fc5565b5b828202905092915050565b600062003db78262003e6c565b915062003dc48362003e6c565b92508282101562003dda5762003dd962003fc5565b5b828203905092915050565b600062003df28262003e4c565b9050919050565b600062003e068262003e4c565b9050919050565b60008115159050919050565b6000819050919050565b600062003e308262003de5565b9050919050565b600081905062003e4782620044b0565b919050565b600073ffffffffffffffffffffffffffffffffffffffff82169050919050565b6000819050919050565b600062003e838262003e9e565b9050919050565b600062003e978262003e37565b9050919050565b600062003eab8262003eb2565b9050919050565b600062003ebf8262003e4c565b9050919050565b82818337600083830152505050565b60005b8381101562003ef557808201518184015260208101905062003ed8565b8381111562003f05576000848401525b50505050565b6000600282049050600182168062003f2457607f821691505b6020821081141562003f3b5762003f3a62004052565b5b50919050565b62003f4c82620040b0565b810181811067ffffffffffffffff8211171562003f6e5762003f6d62004081565b5b80604052505050565b600062003f848262003e6c565b91507fffffffffffffffffffffffffffffffffffffffffffffffffffffffffffffffff82141562003fba5762003fb962003fc5565b5b600182019050919050565b7f4e487b7100000000000000000000000000000000000000000000000000000000600052601160045260246000fd5b7f4e487b7100000000000000000000000000000000000000000000000000000000600052601260045260246000fd5b7f4e487b7100000000000000000000000000000000000000000000000000000000600052602160045260246000fd5b7f4e487b7100000000000000000000000000000000000000000000000000000000600052602260045260246000fd5b7f4e487b7100000000000000000000000000000000000000000000000000000000600052604160045260246000fd5b6000601f19601f8301169050919050565b7f4f776e61626c653a206e6577206f776e657220697320746865207a65726f206160008201527f6464726573730000000000000000000000000000000000000000000000000000602082015250565b7f50726f64756374206e6f7420666f722073616c65206f722063757272656e746c60008201527f792067657474696e6720626f7567687400000000000000000000000000000000602082015250565b7f4e6f7420656e6f7567682066756e647320746f20707572636861736500000000600082015250565b7f5061796d656e7453706c69747465723a206163636f756e7420686173206e6f2060008201527f7368617265730000000000000000000000000000000000000000000000000000602082015250565b7f696e636f72726563742070617373207068726173650000000000000000000000600082015250565b7f416464726573733a20756e61626c6520746f2073656e642076616c75652c207260008201527f6563697069656e74206d61792068617665207265766572746564000000000000602082015250565b7f416464726573733a20696e73756666696369656e742062616c616e6365000000600082015250565b7f416464726573733a20696e73756666696369656e742062616c616e636520666f60008201527f722063616c6c0000000000000000000000000000000000000000000000000000602082015250565b7f5061796d656e7453706c69747465723a206163636f756e74206973206e6f742060008201527f647565207061796d656e74000000000000000000000000000000000000000000602082015250565b7f6f6e6c792070726f6475637420627579657220616c6c6f776564000000000000600082015250565b7f657363726f77206e6f74206465706c6f79656400000000000000000000000000600082015250565b7f63616e27742062757920796f7572206f776e2070726f64756374000000000000600082015250565b7f4f776e61626c653a2063616c6c6572206973206e6f7420746865206f776e6572600082015250565b7f412070726f626c656d206f636375726564000000000000000000000000000000600082015250565b50565b7f416464726573733a2063616c6c20746f206e6f6e2d636f6e7472616374000000600082015250565b7f5361666545524332303a204552433230206f7065726174696f6e20646964206e60008201527f6f74207375636365656400000000000000000000000000000000000000000000602082015250565b7f5265656e7472616e637947756172643a207265656e7472616e742063616c6c00600082015250565b7f5072696365206d757374206265206174206c6561737420312077656900000000600082015250565b60038110620044c457620044c362004023565b5b50565b620044d28162003de5565b8114620044de57600080fd5b50565b620044ec8162003df9565b8114620044f857600080fd5b50565b620045068162003e0d565b81146200451257600080fd5b50565b620045208162003e19565b81146200452c57600080fd5b50565b6200453a8162003e23565b81146200454657600080fd5b50565b600281106200455757600080fd5b50565b620045658162003e6c565b81146200457157600080fd5b5056fe60806040523480156200001157600080fd5b5060405162000f8438038062000f84833981810160405281019062000037919062000131565b82600060016101000a81548173ffffffffffffffffffffffffffffffffffffffff021916908373ffffffffffffffffffffffffffffffffffffffff16021790555081600160006101000a81548173ffffffffffffffffffffffffffffffffffffffff021916908373ffffffffffffffffffffffffffffffffffffffff16021790555080600260006101000a81548173ffffffffffffffffffffffffffffffffffffffff021916908373ffffffffffffffffffffffffffffffffffffffff16021790555050505062000203565b6000815190506200011481620001cf565b92915050565b6000815190506200012b81620001e9565b92915050565b6000806000606084860312156200014757600080fd5b6000620001578682870162000103565b93505060206200016a868287016200011a565b92505060406200017d8682870162000103565b9150509250925092565b60006200019482620001af565b9050919050565b6000620001a882620001af565b9050919050565b600073ffffffffffffffffffffffffffffffffffffffff82169050919050565b620001da8162000187565b8114620001e657600080fd5b50565b620001f4816200019b565b81146200020057600080fd5b50565b610d7180620002136000396000f3fe60806040526004361061007f5760003560e01c80637150d8ae1161004e5780637150d8ae14610132578063a6d339c51461015d578063afe0104314610186578063f340fa01146101b157610086565b806308551a531461008857806324896245146100b3578063603daf9a146100dc578063638b2f621461010757610086565b3661008657005b005b34801561009457600080fd5b5061009d6101cd565b6040516100aa9190610a40565b60405180910390f35b3480156100bf57600080fd5b506100da60048036038101906100d59190610943565b6101f3565b005b3480156100e857600080fd5b506100f161048b565b6040516100fe9190610a25565b60405180910390f35b34801561011357600080fd5b5061011c6104b4565b6040516101299190610a25565b60405180910390f35b34801561013e57600080fd5b506101476104bc565b6040516101549190610a25565b60405180910390f35b34801561016957600080fd5b50610184600480360381019061017f9190610943565b6104e2565b005b34801561019257600080fd5b5061019b61077a565b6040516101a89190610a5b565b60405180910390f35b6101cb60048036038101906101c69190610943565b61078b565b005b600160009054906101000a900473ffffffffffffffffffffffffffffffffffffffff1681565b600060019054906101000a900473ffffffffffffffffffffffffffffffffffffffff1673ffffffffffffffffffffffffffffffffffffffff168173ffffffffffffffffffffffffffffffffffffffff1614610283576040517f08c379a000000000000000000000000000000000000000000000000000000000815260040161027a90610a76565b60405180910390fd5b600160028111156102bd577f4e487b7100000000000000000000000000000000000000000000000000000000600052602160045260246000fd5b60008054906101000a900460ff166002811115610303577f4e487b7100000000000000000000000000000000000000000000000000000000600052602160045260246000fd5b14610343576040517f08c379a000000000000000000000000000000000000000000000000000000000815260040161033a90610ab6565b60405180910390fd5b600260009054906101000a900473ffffffffffffffffffffffffffffffffffffffff1673ffffffffffffffffffffffffffffffffffffffff166108fc60144761038c9190610b07565b9081150290604051600060405180830381858888f193505050501580156103b7573d6000803e3d6000fd5b50600160009054906101000a900473ffffffffffffffffffffffffffffffffffffffff1673ffffffffffffffffffffffffffffffffffffffff166108fc6014476104019190610b07565b4761040c9190610b38565b9081150290604051600060405180830381858888f19350505050158015610437573d6000803e3d6000fd5b5060026000806101000a81548160ff02191690836002811115610483577f4e487b7100000000000000000000000000000000000000000000000000000000600052602160045260246000fd5b021790555050565b60008060019054906101000a900473ffffffffffffffffffffffffffffffffffffffff16905090565b600030905090565b600060019054906101000a900473ffffffffffffffffffffffffffffffffffffffff1681565b8073ffffffffffffffffffffffffffffffffffffffff16600160009054906101000a900473ffffffffffffffffffffffffffffffffffffffff1673ffffffffffffffffffffffffffffffffffffffff1614610572576040517f08c379a000000000000000000000000000000000000000000000000000000000815260040161056990610ad6565b60405180910390fd5b600160028111156105ac577f4e487b7100000000000000000000000000000000000000000000000000000000600052602160045260246000fd5b60008054906101000a900460ff1660028111156105f2577f4e487b7100000000000000000000000000000000000000000000000000000000600052602160045260246000fd5b14610632576040517f08c379a000000000000000000000000000000000000000000000000000000000815260040161062990610ab6565b60405180910390fd5b600260009054906101000a900473ffffffffffffffffffffffffffffffffffffffff1673ffffffffffffffffffffffffffffffffffffffff166108fc60144761067b9190610b07565b9081150290604051600060405180830381858888f193505050501580156106a6573d6000803e3d6000fd5b50600160009054906101000a900473ffffffffffffffffffffffffffffffffffffffff1673ffffffffffffffffffffffffffffffffffffffff166108fc6014476106f09190610b07565b476106fb9190610b38565b9081150290604051600060405180830381858888f19350505050158015610726573d6000803e3d6000fd5b5060026000806101000a81548160ff02191690836002811115610772577f4e487b7100000000000000000000000000000000000000000000000000000000600052602160045260246000fd5b021790555050565b60008054906101000a900460ff1681565b8073ffffffffffffffffffffffffffffffffffffffff16600060019054906101000a900473ffffffffffffffffffffffffffffffffffffffff1673ffffffffffffffffffffffffffffffffffffffff161461081b576040517f08c379a000000000000000000000000000000000000000000000000000000000815260040161081290610a76565b60405180910390fd5b60006002811115610855577f4e487b7100000000000000000000000000000000000000000000000000000000600052602160045260246000fd5b60008054906101000a900460ff16600281111561089b577f4e487b7100000000000000000000000000000000000000000000000000000000600052602160045260246000fd5b146108db576040517f08c379a00000000000000000000000000000000000000000000000000000000081526004016108d290610a96565b60405180910390fd5b60016000806101000a81548160ff02191690836002811115610926577f4e487b7100000000000000000000000000000000000000000000000000000000600052602160045260246000fd5b021790555050565b60008135905061093d81610d24565b92915050565b60006020828403121561095557600080fd5b60006109638482850161092e565b91505092915050565b61097581610b7e565b82525050565b61098481610b6c565b82525050565b61099381610bcd565b82525050565b60006109a6601283610af6565b91506109b182610c6c565b602082019050919050565b60006109c9600c83610af6565b91506109d482610c95565b602082019050919050565b60006109ec601783610af6565b91506109f782610cbe565b602082019050919050565b6000610a0f601383610af6565b9150610a1a82610ce7565b602082019050919050565b6000602082019050610a3a600083018461097b565b92915050565b6000602082019050610a55600083018461096c565b92915050565b6000602082019050610a70600083018461098a565b92915050565b60006020820190508181036000830152610a8f81610999565b9050919050565b60006020820190508181036000830152610aaf816109bc565b9050919050565b60006020820190508181036000830152610acf816109df565b9050919050565b60006020820190508181036000830152610aef81610a02565b9050919050565b600082825260208201905092915050565b6000610b1282610bc3565b9150610b1d83610bc3565b925082610b2d57610b2c610c0e565b5b828204905092915050565b6000610b4382610bc3565b9150610b4e83610bc3565b925082821015610b6157610b60610bdf565b5b828203905092915050565b6000610b7782610ba3565b9050919050565b6000610b8982610ba3565b9050919050565b6000819050610b9e82610d10565b919050565b600073ffffffffffffffffffffffffffffffffffffffff82169050919050565b6000819050919050565b6000610bd882610b90565b9050919050565b7f4e487b7100000000000000000000000000000000000000000000000000000000600052601160045260246000fd5b7f4e487b7100000000000000000000000000000000000000000000000000000000600052601260045260246000fd5b7f4e487b7100000000000000000000000000000000000000000000000000000000600052602160045260246000fd5b7f6f6e6c7920627579657220616c6c6f7765640000000000000000000000000000600082015250565b7f416c726561647920706169640000000000000000000000000000000000000000600082015250565b7f43616e6e6f7420636f6e6669726d2064656c6976657279000000000000000000600082015250565b7f6f6e6c792073656c6c657220616c6c6f77656400000000000000000000000000600082015250565b60038110610d2157610d20610c3d565b5b50565b610d2d81610b7e565b8114610d3857600080fd5b5056fea26469706673582212204027b16ce809526f95d42d4522506b29a83bd975c274ad94143da2760e3f585e64736f6c63430008040033a2646970667358221220096d22cf5b30766a253cde101c173e2b141fbdfbac3715353fa3324a4482b10764736f6c63430008040033",
  "linkReferences": {},
  "deployedLinkReferences": {}
}